:020000040800F2
:10000000380D0020D99E0008B5020008B70200088C
:10001000BB020008BF020008C30200080000000085
:10002000000000000000000000000000C7020008FF
:10003000C902000800000000CB020008CD02000841
:10004000F39E0008F39E0008F39E0008F39E00084C
:10005000F39E0008F39E0008EF5D0008F39E000881
:10006000055E00082D5E00085F5E0008F39E000834
:10007000F39E0008F39E0008F39E0008F39E00081C
:10008000F39E0008F39E0008F39E0008F39E00080C
:10009000F39E0008F39E0008F39E0008F39E0008FC
:1000A000F39E0008F39E0008F39E0008F39E0008EC
:1000B0003D400008AD400008F39E0008F39E000894
:1000C000F39E0008F39E0008F39E0008F39E0008CC
:1000D000F39E0008C19D0008F3990008F39E0008F4
:1000E000F39E0008F39E0008F39E0008F39E0008AC
:1000F000F39E0008F39E0008F39E0008F39E00089C
:10010000F39E0008F39E0008D7420008F39E000803
:10011000F39E0008F39E0008F39E0008F39E00087B
:10012000F39E0008F39E0008F39E0008F39E00086B
:1001300000F002F800F06DF80AA090E8000C82448C
:100140008344AAF10107DA4501D100F062F8AFF269
:10015000090EBAE80F0013F0010F18BFFB1A43F0A5
:100160000103184740050100600501000A444FF0F3
:10017000000C10F8013B13F0070408BF10F8014B06
:100180001D1108BF10F8015B641E05D010F8016B4B
:10019000641E01F8016BF9D113F0080F1EBF10F8AF
:1001A000014BAD1C0C1B09D16D1E58BF01F801CBD2
:1001B000FAD505E014F8016B01F8016B6D1EF9D555
:1001C0009142D6D37047000000230024002500266A
:1001D000103A28BF78C1FBD8520728BF30C148BFAA
:1001E0000B60704766290EF0AA8664290BF0CC8755
:1001F00078290CF00580002070471FB50CF044FCF6
:100200000400002000210DF05DFDE0601FBD10B571
:1002100010BD0CF07DFD1146FFF7EFFF00F008F870
:100220000CF09BFD03B4FFF7F2FF03BC09F004FDE3
:1002300005F070FA002211460F2004F0DDF99F212D
:1002400042F2273003F03DFF4FF4E13009F06CFD3E
:100250002DE000F06AFB01F039FD03F08AFD14483F
:10026000407813498978022202FB01001049087086
:10027000087802F04FF802F0E0FE02F0F9FB0C48BB
:10028000407810B101200A4908700948807810B1FF
:100290000220074908700648007910B1042004497B
:1002A00008700349087802F098FC03F08FF8D0E753
:1002B00009000020704700BFFEE700BFFEE700BF57
:1002C000FEE700BFFEE770477047704770470000C9
:1002D0000CB50020019000906C48006840F480301C
:1002E0006A49086000BF6948006800F40030009067
:1002F0000198401C0190009818B90198B0F5A06FC2
:10030000F1D16248006800F4003010B10120009083
:1003100001E0002000900098012843D15C4800686B
:1003200040F010005A4908600846006820F00300B9
:1003300008600846006840F00200086053484068C2
:10034000524948600846406848600846406840F4A2
:10035000806048600846406820F47C104860084689
:10036000406840F4E81048600846006840F080703B
:10037000086000BF4548006800F000700028F9D010
:100380004248406820F00300404948600846406801
:1003900040F00200486000BF3C48406800F00C009C
:1003A0000828F9D10CBD10B5FFF792FF10BD10B5AC
:1003B0003648006840F0010034490860084640684B
:1003C00034490840314948600846006832490840CD
:1003D0002E4908600846006820F48020086008461E
:1003E000406820F4FE0048604FF41F008860FFF76B
:1003F000DAFF4FF000602949086010BD10B50021F8
:1004000000200022214B5B6803F00C0121B104297C
:1004100006D0082928D107E0214B224C236027E091
:100420001F4B204C236023E0184B5B6803F47010D3
:10043000164B5B6803F48032022303EB904022B931
:10044000194B4343174C23600DE0104B5B6803F4DA
:10045000003323B1144B4343124C236003E0104B91
:100460004343104C236003E00D4B0E4C236000BF50
:1004700000BF064B5B68C3F303130C4CE15C094BF4
:100480001B68CB40074C236010BD000000100240E9
:10049000002002400000FFF8FFFFF6FE08ED00E03C
:1004A00000127A001000002000093D001400002016
:1004B00010B54FF4165009F037FCF9A00BF030FEE0
:1004C0000121002009F004FC0221002009F000FCB9
:1004D0000321002009F0FCFB0421002009F0F8FBB7
:1004E00000BFF14800780028FBD110BD10B5EF48DF
:1004F0004078B1283FD1EC480078012807D100208E
:10050000E94908700121084609F0E2FB32E0E848B9
:10051000007850B1502005F013FB0020E44908702A
:100520000221012009F0D4FB24E0E24800780628EB
:1005300018D2DFE800F01703070B0F13462005F071
:10054000FFFA0FE0422005F0FBFA0BE0522005F025
:10055000F7FA07E04C2005F0F3FA03E0532005F02A
:10056000EFFA00BF00BF0120D1490870022100202E
:1005700009F0AEFB10BDCD484078B2280FD1CD4870
:100580000078012803D1422005F0DAFA06E0C948D4
:100590000078022802D1462005F0D2FAEAE7C348E3
:1005A0004078B32812D1012080F3138800BF00BF28
:1005B000C148006800F4E060C0490843001DBE491E
:1005C0000860BFF3408F00BF00BFFEE7B748407828
:1005D000B42819D1BA48006800F5FA70B849086023
:1005E00008460068B0F57A6F02DB40F69F7008603D
:1005F000B4490888052109F03CFBB249091D088867
:10060000062109F036FBB5E7A8484078B52817D190
:10061000AB480068A0F5FA70A94908600846006870
:10062000002801DA00200860A6490888052109F0A1
:1006300020FBA449091D0888062109F01AFB99E747
:100640009A484078B6281FD100E000E0FDE700BFDF
:10065000012005F025FD84B20321204609F009FBA5
:10066000032005F01DFD84B20421204609F001FBA2
:1006700094490888052109F0FCFA9249091D088867
:10068000062109F0F6FA75E700BF73E705E046209A
:1006900000F07AFA422000F077FAF8E708B500F0A7
:1006A00044F93BE04FF080428749462000F0E9FEE4
:1006B000002000F031FF854A1146462001F02DF858
:1006C000012003234FF47A724D210090462004F05C
:1006D00023FA532005F034FA4FF47A7009F07FFAC8
:1006E0004FF080427849422000F0CBFE002000F01D
:1006F00013FF764A1146422001F00FF8012004232F
:100700004FF47A724D210090422004F005FA5320F4
:1007100005F016FA4FF47A7009F061FAC2E708B5ED
:1007200000F003F967E0694A1146462000F0F5FF42
:10073000012006234FF47A724D210090462004F0E8
:10074000EBF9012004234FF47A724D2100904620EA
:1007500004F0E2F900F057F9012006234FF47A7211
:100760004D210090462004F0D7F9012004234FF4D6
:100770007A724D210090462004F0CEF94FF07E525F
:100780005149462000F07DFE002000F0C5FE4F4A92
:100790001146462000F0C1FF012007234FF47A7272
:1007A0004D210090462004F0B7F9012005234FF4B5
:1007B0007A724D210090462004F0AEF900F023F942
:1007C000012007234FF47A724D210090462004F057
:1007D000A3F9012005234FF47A724D2100904620A1
:1007E00004F09AF94FF07E523749462000F049FE56
:1007F000002000F091FE96E710B53C24C02134485B
:100800000AF0C2FF09E0601EC4B24FF47A7009F02A
:10081000E6F90121204609F02CFA002CF3D1C12180
:100820002B480AF0B1FF10BD26E04FF07E5226495A
:10083000462000F026FE002000F06EFE234A1146FE
:10084000462000F06AFF234A11464FF07E5000F028
:100850007DFB4FF07E521C49462000F012FE002026
:1008600000F05AFE194A1146462000F056FF194A78
:100870001146194800F06AFBD7E710B5044650202E
:1008800005F05EF90221204609F0F3F9012006493E
:10089000087000BF044800780028FBD110BD00009C
:1008A00052454144590A0000050000200C06002072
:1008B00004000020060000200CED00E00000FA0516
:1008C000000000203408004000002041000020C14A
:1008D0000044004000007041000080BF10B5044695
:1008E0007CB1012003F067FD022003F07BFDFA20BC
:1008F00009F075F9002003F05EFD002003F072FDA1
:1009000012E0012003F057FDFA2009F068F90020F9
:1009100003F051FD022003F065FD4FF4967009F0DD
:100920005EF9002003F05EFD10BD10B5532005F008
:1009300007F94FF4FA70FE4908601BE0012005F04A
:10094000AFFB0F2805D8FA480068401EF849086038
:1009500004E0F74800680A30F5490860012009F012
:100960003EF9F3480068B0F5FA7F03D94FF4FA7006
:10097000EF490860EE4800680028DFD103E04FF43B
:10098000FA7009F02CF908F06DFE0028F7D101206B
:10099000E8490860002003F03CFD002003F00BFD57
:1009A000002003F01FFD4FF4FA7009F018F902203F
:1009B00003F02FFD4FF4FA7009F011F9012003F054
:1009C00028FD6420DA49086016E0012005F068FB84
:1009D0000F2805D9D6480068401ED549086004E0B4
:1009E000D34800680A30D2490860D14800686428BA
:1009F00002D96420CE490860CD4800680028E4D1BF
:100A0000CC49086010BD10B5462005F099F816E0F5
:100A10004FF42F714D2004F0DEF9C74AC749C8488A
:100A200008F06DFE58B9C5480168C64800680EF068
:100A300013F90446C4490EF0DBF900D200E0E7E701
:100A400000BF41E0C148006880B94FF46170C049FF
:100A500008804FF4FA70091D08804FF46170091D79
:100A600008804FF4FA70091D08801BE0B94800683F
:100A700070B94FF4FA70B64908804FF46170091DDF
:100A80000880091D08804FF4FA70091D088009E0EC
:100A90004FF42F70AE490880091D0880091D088099
:100AA000091D0880A44AA549A54808F028FE58B9A0
:100AB000A2480168A34800680EF0CEF80446A64993
:100AC0000EF096F900D200E0BCE700BF3FE09F487F
:100AD000006870B940F24C409D4908804FF4617045
:100AE000091D0880091D088040F24C40091D08803E
:100AF0001BE09848006870B94FF461709449088011
:100B000040F24C40091D0880091D08804FF46170B7
:100B1000091D088009E04FF47A708D490880091D8D
:100B20000880091D0880091D0880834A834984487C
:100B300008F0E5FD58B981480168824800680EF068
:100B40008BF8044685490EF053F800D200E0BEE76A
:100B500000BF4FF49661462003F0D1FF11E0764AC2
:100B60007649774808F0CBFD58B974480168754854
:100B700000680EF071F8044678490EF039F900D299
:100B800000E0ECE700BF10BD70B50446204604F05D
:100B9000D7FF64206649086025E040F2DC514D2013
:100BA00004F019F9674801684FF080400DF054FED9
:100BB00006460DF0D1FFC5B2284605F071FA14289B
:100BC00005D25B480068401E5949086004E0584857
:100BD00000680A305649086055480068642802D900
:100BE000642053490860524800680028D5D14FF46A
:100BF0007A704F490860022003F0DDFB022003F009
:100C0000F1FB27E04FF496614D2004F0E4F84D48E5
:100C100001684FF080400DF01FFE06460DF09CFF6E
:100C2000C5B2284605F03CFA0F2805D240480068B6
:100C3000401E3F49086004E03D4800680A303C49D6
:100C400008603B480068B0F57A7F03D94FF47A70AA
:100C500037490860364800680028D3D10120404950
:100C6000087064203249086001203D49087025E081
:100C70004FF42F714D2004F0AEF8324801684FF068
:100C800080400DF0E9FD06460DF066FFC5B228462E
:100C900005F006FA052805D225480068401E2449BB
:100CA000086004E0224800680A30214908602048B2
:100CB0000068642802D964201D4908601C48006847
:100CC00018B1274800780028D2D14FF4FA71204695
:100CD00003F015FF4FF4FA7008F081FF002003F0D5
:100CE0006AFB002003F07EFB70BD70B50446204611
:100CF00004F026FF0A200E49086036E04FF47A71AE
:100D00004D2004F068F80C4A0C490D4808F0F7FC37
:100D100040BB0A4801680B4800680DF09DFF05467E
:100D20000D490EF065F820D201480068401E1AE017
:100D300038000020948123422C000020280000204D
:100D400024000020300000200000A0402C0123429D
:100D50003408004038812142000020410000A0C03A
:100D60000800002001E0FE490860FD4800680028F6
:100D7000C4D10A20FA4908601AE04FF42F714D20BF
:100D800004F029F8F74AF849F84808F0B8FC78B9AF
:100D9000F5480168F64800680DF05EFF0546F54924
:100DA0000DF026FF04D2EE480068401EEC490860B2
:100DB000EB4800680028E0D10A20E94908601AE001
:100DC0004FF47A714D2004F006F8E64AE649E74808
:100DD00008F095FC78B9E4480168E54800680DF032
:100DE0003BFF0546E3490EF003F804D2DC480068F7
:100DF000401EDB490860DA4800680028E0D170BD79
:100E000010B5462004F09CFE16E04FF47A714D2098
:100E100003F0E1FFD34AD449D44808F070FC58B934
:100E2000D1480168D24800680DF016FF0446D24947
:100E30000DF0DEFF00D200E0E7E700BF3FE0CF4863
:100E4000006870B94FF44870CD4908804FF41670AF
:100E5000091D0880091D08804FF44870091D08808D
:100E60001BE0C848006870B94FF41670C449088088
:100E70004FF44870091D0880091D08804FF4167052
:100E8000091D088009E04FF42F70BD490880091D35
:100E90000880091D0880091D0880B24AB249B3487C
:100EA00008F02DFC58B9B0480168B14800680DF051
:100EB000D3FE0446AF490DF09BFE00D200E0BEE732
:100EC00000BF40E0AD48006870B94FF41670AC49FF
:100ED00008804FF4C870091D0880091D08804FF470
:100EE0001670091D08801BE0A648006870B94FF411
:100EF000C870A34908804FF41670091D0880091DA9
:100F000008804FF4C870091D088009E04FF4FA709A
:100F10009B490880091D0880091D0880091D08805B
:100F2000904A9149914808F0EAFB60B98E480168FF
:100F30008F4800680DF090FE04464FF040410DF0E0
:100F400057FF00D200E0BDE700BF10BD2DE9F04122
:100F500004460E461746462004F0F2FD15E04FF415
:100F60002F714D2003F037FF7E4A7F497F4808F0FC
:100F7000C6FB50B97C48016820460DF06DFE054661
:100F80007D490DF035FF00D200E0E8E700BF4FF4E7
:100F9000FA71462003F0B3FD00E17848006808B913
:100FA000012000E0002000EBC00101EB00104FF435
:100FB0002F7101EBC00071490C31096809B9012199
:100FC00000E0002101EB4102C2EBC11100EB810006
:100FD0006C49096809B9012100E0002101EBC10257
:100FE00002EB0111A0EBC10066490839096809B993
:100FF000012100E0002101EB4102C2EBC111A0EB95
:1010000081005F4908805D48006808B9012000E060
:10101000002000EBC00101EB00104FF42F71A1EB99
:10102000C00056490C31096809B9012100E00021CE
:1010300001EB4102C2EBC111A0EB810051490968EB
:1010400009B9012100E0002101EBC10202EB01110D
:1010500000EBC1004B490839096809B9012100E0DA
:10106000002101EB4102C2EBC11100EB81004449B8
:10107000091D08804148006808B9012000E00020EF
:1010800000EBC00101EB00104FF42F71A1EBC00188
:101090003A480C30006808B9012000E0002000EB5D
:1010A0004002C2EBC010A1EB80003649096809B9C3
:1010B000012100E0002101EBC10202EB011100EB74
:1010C000C10030490839096809B9012100E000214F
:1010D00001EB4102C2EBC11100EB8100284908314C
:1010E00008802648006808B9012000E0002000EBD5
:1010F000C00101EB00104FF42F7101EBC0001F493C
:101100000C31096809B9012100E0002101EB41021D
:10111000C2EBC11100EB81011A48006808B9012037
:1011200000E0002000EBC00202EB0010A1EBC000C9
:1011300014490839096809B9012100E0002101EBCF
:101140004102C2EBC111A0EB81000D490C310880B6
:10115000044A0549054808F0D2FAF8B9034813E0F3
:10116000380000202C00002028000020240000204F
:10117000300000200000A0C00000A0402C0123424D
:101180003408004038812142016820460DF064FD9A
:101190000546F7490DF02CFE00D200E0FDE600BF49
:1011A000EBE0F448006808B9012000E0002000EB03
:1011B000C00101EB00104FF42F7101EBC001ED48AD
:1011C0000C30006808B9012000E0002000EB40026C
:1011D000C2EBC01001EB8000E749096809B90121A1
:1011E00000E0002101EBC10202EB0111A0EBC10004
:1011F000E1490839096809B9012100E0002101EB42
:101200004102C2EBC111A0EB8100DC490880D94842
:10121000006808B9012000E0002000EBC00101EBEC
:1012200000104FF42F71A1EBC000D2490C310968B6
:1012300009B9012100E0002101EB4102C2EBC1111B
:10124000A0EB8101CC48006808B9012000E0002033
:1012500000EBC00202EB001001EBC001C6480838E9
:10126000006808B9012000E0002000EB4002C2EB5A
:10127000C01001EB8000C149091D0880BD4800680D
:1012800008B9012000E0002000EBC00101EB0010D4
:101290004FF42F71A1EBC000B6490C31096809B9B0
:1012A000012100E0002101EB4102C2EBC111A0EBE2
:1012B0008101B148006808B9012000E0002000EB7E
:1012C000C00202EB001001EBC000AB49083909680D
:1012D00009B9012100E0002101EB4102C2EBC1117B
:1012E00000EB8100A54908310880A248006808B9D0
:1012F000012000E0002000EBC00101EB00104FF4E2
:101300002F7101EBC0019B480C30006808B9012027
:1013100000E0002000EB4002C2EBC01001EB8000B7
:101320009549096809B9012100E0002101EBC102DA
:1013300002EB0111A0EBC1008F490839096809B916
:10134000012100E0002101EB4102C2EBC111A0EB41
:1013500081008A490C310880894A8A498A4808F004
:10136000CEF950B98748016820460DF075FC054656
:1013700086490DF03DFC00D200E012E700BF0120DD
:101380008349086016E04FF47A71462003F0B7FBFA
:101390007B4A7C497C4808F0B2F958B97948016821
:1013A00020460DF059FC05464FF040410DF020FD60
:1013B00000D200E0E7E700BF002075490860BDE803
:1013C000F08170B50446422004F0BAFB0120714957
:1013D000087016E04FF47A714D2003F0FCFC684A67
:1013E0006849694808F08BF958B9664801686A4845
:1013F00000680DF031FC054668490DF0F9FC00D29B
:1014000003E0644800780028E4D100BF532004F0D2
:1014100097FB4FF49670624908600FE0032004F0D8
:101420003FFE0F2805D95E480068401E5C490860F1
:1014300004E05B480068401C59490860584800684F
:10144000C821B0FBF1F201FB12000028E6D154489C
:101450000068C82805D10120524908554C49086048
:1014600007E04F480068B0F5C87F02D100204D4921
:1014700008554FF47A7008F0B2FB00204449086028
:1014800070BD2DE9F04105460E461446284604F08D
:1014900057FB16E04FF47A714D2003F09CFC384A5C
:1014A0003849394808F02BF958B9364801683A48A4
:1014B00000680DF0D1FB074631460DF099FC00D2D3
:1014C00000E0E7E700BF4FF42F71284603F017FB59
:1014D00011E02B4A2B492C4808F011F958B929483A
:1014E00001682D4800680DF0B7FB074621460DF056
:1014F0007FFB00D200E0ECE700BF06E02A4800686E
:1015000010B12A48006800B900E0F7E700BF532097
:1015100004F016FBBDE8F08170B505463121244882
:101520000AF032F92846FFF7D9F9002002F043FF0C
:1015300020480068B4304FF4B47190FBF1F201FB25
:101540001204642016490860DDE0312118480AF0D1
:101550001BF918480068201A00282DDD154800687E
:10156000201AB42828DA522004F0EAFA27E0000012
:10157000000088412C012342388121423408004078
:101580002C00002028000020240000200000A0C023
:101590009481234208000020300000200000A04079
:1015A0003800002009000020240124423881224212
:1015B00000440040340000204C2004F0C1FAF749F8
:1015C0000968601A002801DB014600E04142B429A5
:1015D0003BDCF2490968601A002801DB014600E0A3
:1015E000414201EBC10101F5FA71ED4A1180EB496D
:1015F0000968601A002801DB014600E0414201EB66
:10160000C10101F5FA71E64A121D1180E34909682A
:10161000601A002801DB014600E0414201EBC101F4
:1016200001F5FA71DE4A08321180DC490968601A56
:10163000002801DB014600E0414201EBC10101F558
:10164000FA71D74A0C32118042E0D4490968601A15
:10165000002801DB014600E04142C1F5B47101EB15
:10166000C10101F5FA71CE4A1180CC490968601AAE
:10167000002801DB014600E04142C1F5B47101EBF5
:10168000C10101F5FA71C64A121D1180C3490968EA
:10169000601A002801DB014600E04142C1F5B47147
:1016A00001EBC10101F5FA71BD4A08321180BB4955
:1016B0000968601A002801DB014600E04142C1F5DB
:1016C000B47101EBC10101F5FA71B54A0C32118018
:1016D000B2480068A04208D1B2480068401EB14933
:1016E0000860532004F02CFA04E0AE4800680A3089
:1016F000AC490860AB480068B0F57A7F03D94FF475
:101700007A70A8490860A748006800287FF41DAFD8
:10171000A549086002F066FE70BD2DE9F04105465E
:101720000E461446284604F00BFA4FF42F71284653
:1017300003F0E5F911E09D4A9D499E4807F0DFFF5F
:1017400058B99B4801689C4800680DF085FA074627
:1017500031460DF04DFA00D200E0ECE700BF16E094
:101760004FF47A714D2003F036FB904A904991482E
:1017700007F0C5FF58B98E4801688F4800680DF022
:101780006BFA074621460DF033FB00D200E0E7E795
:1017900000BFBDE8F0812DE9F04105460E46144634
:1017A000284604F0CDF916E04FF47A714D2003F08D
:1017B00012FB7E4A7E497F4807F0A1FF58B97C485A
:1017C00001687D4800680DF047FA074631460DF084
:1017D0000FFB00D200E0E7E700BF16E04FF47A719C
:1017E0004D2003F0F8FA714A7149724807F087FFFB
:1017F00058B96F480168704800680DF02DFA074627
:1018000021460DF0F5F900D200E0E7E700BF4FF404
:10181000FA71284603F073F911E0644A6449654897
:1018200007F06DFF58B962480168634800680DF021
:1018300013FA074631460DF0DBFA00D200E0ECE780
:1018400000BF16E04FF47A714D2003F0C4FA574AF6
:101850005749584807F053FF58B95548016856484A
:1018600000680DF0F9F9074621460DF0C1F900D2E4
:1018700000E0E7E700BF4FF4FA71284603F03FF9B4
:1018800006E04E48006810B14D48006800B900E01D
:10189000F7E700BF532004F053F9BDE8F0812DE9CC
:1018A000F04105460E461446284604F049F94FF427
:1018B000FA71284603F023F901203A49086015E03F
:1018C0003A4A3B493B4807F01AFF78B93848016863
:1018D000394800680DF0C0F9074631460DF088F927
:1018E00004D230480068401E2E4908602D48006828
:1018F0000028E5D116E04FF4FA714D2003F06BFAA1
:101900002A4A2B492B4807F0FAFE58B928480168A3
:10191000294800680DF0A0F9074621460DF068FA45
:1019200000D200E0E7E700BF284604F009F94FF4D1
:10193000FA71284603F0E3F811E01C4A1C491D48DF
:1019400007F0DDFE58B91A4801681B4800680DF021
:1019500083F9074631460DF04BF900D200E0ECE781
:1019600000BF16E04FF4FA714D2003F034FA0F4A2D
:101970000F49104807F0C3FE58B90D4801680E48DA
:1019800000680DF069F9074621460DF031FA00D2E2
:1019900000E0E7E700BFBDE8F08100003400002070
:1019A0003408004038000020948123422C0000209D
:1019B00028000020240000203000002024012442C0
:1019C0003881224270B50446A4BB4FF4FA71462018
:1019D00003F095F84FF47A7008F001F96420AE49ED
:1019E000086020E0012004F05BFB042804D94FF4D8
:1019F000FA71462003F083F8012004F051FB04281B
:101A000004D24FF4FA71422003F079F8012004F077
:101A100047FB042807D1532004F092F89E48006841
:101A2000401E9D4908609C4800680028DAD1532078
:101A300004F086F8012C52D10A20974908601DE075
:101A4000012004F02DFB30B94FF4FA71422003F06D
:101A500056F801250026012004F022FB04280DD9A8
:101A60004FF4FA71462003F04AF801262DB126B151
:101A700089480068401E884908600025864800683B
:101A80000028DDD14FF47A708349086020E00120FE
:101A900004F006FB042804D94FF4FA71462003F041
:101AA0002EF8012004F0FCFA042804D24FF4FA7155
:101AB000422003F024F8012004F0F2FA042807D1B0
:101AC000462004F03DF874480068401E72490860E2
:101AD000714800680028DAD1532004F031F8022C54
:101AE0000BD14FF4FA71462003F009F84FF47A70E5
:101AF00008F075F8532004F023F870BD38B546207F
:101B000004F01EF816E04FF42F714C2003F063F937
:101B1000624A6349634807F0F2FD58B960480168BA
:101B2000614800680DF098F8044660490DF060F9CE
:101B300000D200E0E7E700BF3FE05D48006870B911
:101B40004FF448705B4908804FF41670091D0880F7
:101B5000091D08804FF44870091D08801BE0564895
:101B6000006870B94FF41670524908804FF44870FD
:101B7000091D0880091D08804FF41670091D088092
:101B800009E04FF42F704B490880091D0880091D9A
:101B90000880091D0880414A4149424807F0AFFDCD
:101BA00058B93F480168404800680DF055F80446B0
:101BB00042490DF01DF800D200E0BEE700BF3BE057
:101BC0003B48006860B94FF4C8703A490880C820A3
:101BD000091D0880091D08804000091D088018E0C3
:101BE0003548006858B9C820324908804000091DAE
:101BF0000880091D0880C820091D088009E04FF4ED
:101C000096702C490880091D0880091D0880091D4F
:101C10000880224A2249234807F071FD60B9204814
:101C20000168214800680DF017F804464FF0404164
:101C30000DF0DEF800D200E0C2E700BF0120002373
:101C40004FF42F7252210090462002F065FF4FF4AE
:101C5000FA71462002F053FF00BF194800680028BF
:101C6000FBD04FF4E16261214C2003F01BF84FF4EC
:101C7000E16261214C2003F015F84FF080421149D8
:101C80004620FFF7FEFB0020FFF746FC0E4A1146F8
:101C90004620FFF742FD38BD380000202C00002010
:101CA0002800002024000020300000200000A04078
:101CB0002C01234234080040388121420000A0C09A
:101CC0003001244200002041000020C108B5FE4A36
:101CD00011464620FFF721FD012006234FF47A72BA
:101CE0004D210090462002F017FF012004234FF4FD
:101CF0007A724D210090462002F00EFFFEF783FE1F
:101D0000012006234FF47A724D210090462002F004
:101D100003FF012004234FF47A724D2100904620E6
:101D200002F0FAFE4FF07E52E8494620FFF7A9FB89
:101D30000020FFF747FE0020FFF7EEFB08BD08B5C7
:101D4000E14A11464620FFF7E8FC012007234FF443
:101D50007A724D210090462002F0DEFE01200346FB
:101D60004FF47A724D210090462002F0D5FE0120FA
:101D700007234FF42F724D210090422002F0CCFE39
:101D80004FF4E1626121522002F08CFF0120072311
:101D90004FF42F7252210090462002F0BDFE012028
:101DA00003464FF42F724D210090462002F0B4FEFE
:101DB0004FF4AF6262214C2002F074FF0120072330
:101DC0004FF4966252210090462002F0A5FE0120B9
:101DD00003234FF4FA724D210090462002F09CFE3E
:101DE000012005234FF496724D210090462002F009
:101DF00093FE4FF4FA6262214C2002F053FF01205F
:101E000006234FF47A7252210090422002F084FEA1
:101E10000220FFF7D6FA012006234FF496624D21E7
:101E20000090462002F078FE012003234FF42F7229
:101E30004D210090462002F06FFE4FF4967146202F
:101E400002F05DFE00BFA24800680028FBD14FF4FD
:101E5000E16262214C2002F025FF0120FFF7B1FA78
:101E6000012006234FF496624D210090462002F097
:101E700053FE012003234FF4FA724D2100904620B7
:101E800002F04AFE4FF49671462002F038FE00BF81
:101E90008F4800680028FBD14FF4AF6261215220C7
:101EA00002F000FF012007234FF47A724D210090C9
:101EB000462002F031FE012004234FF42F724D2101
:101EC0000090462002F028FE012003464FF4FA72EB
:101ED0004D210090422002F01FFE4FF4FA62612172
:101EE0004C2002F0DFFE012005234FF42F724C211D
:101EF0000090462002F010FE4620FEF745FE01202D
:101F000005234FF47A724C210090422002F004FE27
:101F10004FF49671422002F0F2FD00BF6C48303859
:101F200000680028FAD04FF4FA626121522002F0D2
:101F3000B9FE4FF0804265494620FFF7A2FA002023
:101F4000FFF740FD0020FFF7E7FA5F4A1146462001
:101F5000FFF7E3FB012007234FF461724D2100904E
:101F6000462002F0D9FD012006234FF47A724D215C
:101F70000090462002F0D0FD012007234FF4966226
:101F80004D210090462002F0C7FD0120062340F2BB
:101F9000DC524D210090462002F0BEFD01200723B7
:101FA0004FF496624D210090462002F0B5FD4FF0AF
:101FB000804246494620FFF764FA0020FFF702FD01
:101FC0000020FFF7A9FA08BD08B53F4A1146462090
:101FD000FFF7A3FB012007234FF47A724D210090F5
:101FE000462002F099FD012003464FF47A724D21FC
:101FF0000090462002F090FD012007234FF42F723D
:102000004D210090422002F087FD4FF4E1626121F2
:10201000522002F047FE012007234FF42F72522175
:102020000090462002F078FD012003464FF42F7205
:102030004D210090462002F06FFD4FF4AF62622107
:102040004C2002F02FFE022007234FF4966252210B
:102050000090462002F060FD012007234FF47A72C1
:102060004D210090462002F057FD012004234FF43B
:102070002F724D210090462002F04EFD01200346B4
:102080004FF4FA724D210090422002F045FD4FF4CA
:10209000FA6261214C2002F005FE012005234FF475
:1020A0002F724C210090462002F036FD4620FEF7AC
:1020B0006BFD012005234FF47A724C2100904220E1
:1020C00002F02AFD06E00000000020C100002041CF
:1020D000388122424FF49671422002F010FD00BF79
:1020E000FE4800680028FBD04FF4FA6261215220BC
:1020F00002F0D8FD4FF08042F9494620FFF7C1F9C0
:102100000020FFF75FFCF7490879FFF705FAF64A68
:1021100011464620FFF701FB012007234FF46172AF
:102120004D210090462002F0F7FC012006234FF4D9
:102130007A724D210090462002F0EEFC0120072328
:102140004FF496624D210090462002F0E5FC0120FC
:10215000062340F2DC524D210090462002F0DCFCC8
:10216000012007234FF496624D210090462002F093
:10217000D3FC4FF08042DA494620FFF782F9002075
:10218000FFF720FCD749C878FFF7C6F9D64A1146B1
:102190004620FFF7C2FA012006234FF496624D2134
:1021A0000090462002F0B8FC012002234FF42F7269
:1021B0004D210090462002F0AFFC012004234FF493
:1021C00096724D210090462002F0A6FC4FF4FA6270
:1021D0006221522002F066FD012007234FF42F7286
:1021E0004C210090422002F097FC4220FEF7CCFCEC
:1021F0000120072340F2DC524D210090462002F0DE
:102200008BFC012005234FF496724D21009046204F
:1022100002F082FC4FF4FA6262214C2002F042FD8F
:10222000012005234FF47A724D210090462002F0E0
:1022300073FC0120062340F2DC524D210090462021
:1022400002F06AFC012000234FF42F72522100900B
:10225000462002F061FC012000234FF4FA72522163
:102260000090462002F058FC012002234FF4FA723D
:1022700052210090422002F04FFC08BD08B59A4A56
:1022800011464620FFF749FA012006234FF49662D3
:102290004D210090462002F03FFC012002234FF424
:1022A0002F724D210090462002F036FC01200423BD
:1022B0004FF496724D210090462002F02DFC4FF411
:1022C000FA626221522002F0EDFC012007234FF454
:1022D0002F724C210090422002F01EFC4220FEF79B
:1022E00053FC0120072340F2DC524D210090462090
:1022F00002F012FC012005234FF496724D2100904C
:10230000462002F009FC4FF4FA6262214C2002F0F0
:10231000C9FC08BD38B5044614B1022C7ED14CE08E
:10232000012006234FF42F724D210090422002F02D
:10233000F3FB012003464FF4FA724D210090462032
:1023400002F0EAFB4FF4FA6262214C2002F0AAFC90
:102350000420FFF736F8012005234FF47A724D214F
:102360000090422002F0D8FB012000234FF4967227
:102370004D210090422002F0CFFB532003F0E0FB00
:102380004FF4FA7007F02BFC4FF4FA6262215220EE
:1023900002F088FC012007234FF47A724C21009050
:1023A000462002F0B9FB0120062340F2DC524D2109
:1023B0000090462002F0B0FBC4E0012006234FF459
:1023C000966252210090462002F0A6FB01200723CE
:1023D0004FF47A7252210090462002F09DFB0120BA
:1023E00005234FF4FA724D210090462002F094FB31
:1023F0004FF4FA6262214C2002F054FC01200623C3
:102400004FF47A7252210090422002F085FB0120A5
:10241000062340F2DC524D21009000E02EE04220E5
:1024200002F07AFB012004234FF47A724D210090D0
:10243000422002F071FB4FF49671422002F05FFBE4
:1024400000BF264800680028FBD04FF4FA626121E3
:10245000522002F027FC012007234FF47A724D210D
:102460000090462002F058FB0120062340F2DC5287
:102470004D210090462002F04FFB63E00120052330
:102480004FF47A724D210090462002F045FB022065
:10249000062340F2DC5252210090462002F03CFB21
:1024A000012007234FF47A7252210090462002F057
:1024B00033FB022005234FF42F724D21009046205C
:1024C00002F02AFB012003464FF4FA724D210090DE
:1024D000422002F021FB532008E000000881224244
:1024E00000002041E0040020000020C103F028FB90
:1024F0004FF4FA7007F073FB4FF4E1626121522050
:1025000002F0D0FB012007234FF47A724D21009096
:10251000462002F001FB012000234FF496724D216A
:102520000090462002F0F8FA532003F009FB4FF424
:10253000FA7007F054FB4FF4E16261214C2002F085
:10254000B1FB00BF00BF012005234FF496624D216F
:102550000090462002F0E0FA4FF08042FE4946200B
:10256000FEF78FFF0020FFF72DFAFC494879FEF7B0
:10257000D3FF38BD08B5FA4A11464620FFF7CDF81B
:102580000120062340F2DC524D210090462002F04B
:10259000C3FA012002234FF47A724D2100904620A5
:1025A00002F0BAFA012006234FF42F724D21009059
:1025B000462002F0B1FA012002234FF4FA724D21B5
:1025C0000090462002F0A8FA012000234FF49672F2
:1025D0004D210090462002F09FFA532003F0B0FAFC
:1025E0004FF4FA7007F0FBFA4FF4E16261214C20DE
:1025F00002F058FB012002234FF4FA724D210090A3
:10260000462002F089FA4FF49671462002F077FADC
:1026100000BFD44800680028FBD14FF4E16261217B
:10262000522002F03FFB012007234FF4FA724D21A4
:102630000090462002F070FA012003234FF4FA7252
:102640004D210090462002F067FA012003464FF426
:1026500096724D210090462002F05EFA4FF4E1623E
:102660006121522002F01EFB4620FEF78DFA012068
:1026700004234FF4FA724D210090422002F04CFAEC
:102680004FF49671422002F03AFA00BFB648006853
:102690000028FBD14FF4E1626121522002F002FBDD
:1026A000012006234FF47A724D210090462002F05B
:1026B00033FA012006234FF47A724D210090462010
:1026C00002F02AFA012002234FF4FA724D21009001
:1026D000462002F021FA4FF49671462002F00FFADC
:1026E00000BFA14800680028FBD14FF4E1626121DE
:1026F000522002F0D7FA012009234FF42F724D2106
:102700000090462002F008FA012003234FF4FA72E9
:102710004D210090462002F0FFF94FF496714620BB
:1027200002F0EDF900BF904800680028FBD14FF49B
:10273000E1626121522002F0B5FAFEF761FB01204F
:1027400006234FF42F724D210090462002F0E4F949
:10275000012002234FF4FA724D210090462002F02E
:10276000DBF94FF49671462002F0C9F900BF7D48AD
:1027700000680028FBD14FF4FA6261214C2002F07E
:1027800091FA012002234FF4FA724D210090462065
:1027900002F0C2F94FF49671462002F0B0F900BF82
:1027A000704800680028FBD14FF4FA6261214C2088
:1027B00002F078FA022001234FF4FA724D210090C2
:1027C000462002F0A9F9022000234FF4FA724D21AD
:1027D0000090462002F0A0F9022001234FF4FA7283
:1027E0004D210090462002F097F9022000234FF47B
:1027F000FA724D210090462002F08EF94FF07E5281
:1028000055494620FEF73DFE0020FFF7DBF800208B
:10281000FEF782FE08BD08B5514A11464620FEF774
:102820007CFF022001234FF42F724D21009046209F
:1028300002F072F9022001234FF42F724D21009013
:10284000462002F069F9012007234FF47A724D21E6
:102850000090462002F060F9012003234FF4FA7241
:102860004D210090462002F057F94FF49671462012
:1028700002F045F900BF3C4800680028FBD14FF446
:10288000FA6262214C2002F00DFA012004234FF479
:10289000FA724D210090422002F03EF94FF49671F9
:1028A000422002F02CF900BF2E4800680028FBD11E
:1028B0004FF4FA626121522002F0F4F92B4A2649C2
:1028C0002B48FEF743FB012003234FF4FA724C21FF
:1028D0000090462002F020F9264A27494620FEF7BC
:1028E0005AFF0020FFF76EF81C49087AFEF714FE25
:1028F00008BD08B5214A11464620FEF7D0FF012049
:1029000006234FF42F724D210090462002F004F967
:10291000012004234FF4FA724D210090462002F06A
:10292000FBF84FF4FA626221522002F0BBF9012059
:1029300003234FF4FA724C210090422002F0ECF88D
:10294000012005234FF47A724D210090422002F0BD
:10295000E3F84FF4967113E000002041E0040020FA
:10296000000020C124012442388122420000A0C07E
:10297000000080BF0000404000007041000070C1B6
:10298000422002F0BCF800BFFE4800680028FBD1DE
:102990004FF4FA626121522002F084F901200723EA
:1029A0004FF47A724D210090462002F0B5F80120D4
:1029B00003234FF4FA724D210090462002F0ACF848
:1029C0004FF49671462002F09AF800BFED48006877
:1029D0000028FBD14FF4E1626121522002F062F93C
:1029E000012007234FF47A724D210090462002F017
:1029F00093F8012003234FF4FA724D2100904620F2
:102A000002F08AF84FF49671462002F078F800BF81
:102A1000DC4800680028FBD14FF4E16261215220BC
:102A200002F040F9012007234FF47A724D21009003
:102A3000462002F071F8012003234FF4FA724D2171
:102A40000090462002F068F84FF49671462002F09C
:102A500056F800BFCB4800680028FBD140F2A462C2
:102A60006121522002F01EF94620FEF78DF808BDC4
:102A700008B5012004234FF42F724D21009042200D
:102A800002F04AF84FF49671422002F038F800BF85
:102A9000BC4800680028FBD14FF4E162622152205B
:102AA00002F000F9012004234FF42F724D21009011
:102AB000422002F031F84FF49671422002F01FF8E4
:102AC00000BFB14800680028FBD14FF4E1626121EA
:102AD0004C2002F0E7F8012005234FF4FA724D2153
:102AE0000090462002F018F8012006234FF42F72C0
:102AF0004D210090462002F00FF8012007234FF4EB
:102B00007A724D210090462002F006F8012003233E
:102B10004FF4FA724D210090462001F0FDFF012094
:102B200003464FF496724D210090462001F0F4FFC9
:102B30004FF4FA7007F053F84FF4E16262214C2031
:102B400002F0B0F8012004234FF42F724D210090C1
:102B5000422001F0E1FF012000234FF496724D2145
:102B60000090422001F0D8FF4FF4FA7007F037F8D8
:102B70004FF4E16261214C2002F094F84620FEF708
:102B800003F8012004234FF4FA724D2100904220F3
:102B900001F0C2FF4FF49671422001F0B0FF00BF78
:102BA000784800680028FBD14FF4E162612152208F
:102BB00002F078F8012007234FF47A724D2100903B
:102BC000462001F0A9FF012003464FF4FA724D217F
:102BD0000090462001F0A0FF08BD38B50446012C46
:102BE00006D0022C7DD0032C7CD0042C7BD1DAE0E3
:102BF0004FF4FA7006F0F3FF4FF4FA6262214C20B2
:102C000002F050F8012002234FF4FA724C21009098
:102C1000422001F081FF012006234FF47A724D21FA
:102C20000090422001F078FF0120022340F2DC52A4
:102C30004D210090422001F06FFF012005234FF449
:102C40007A724D210090422001F066FF012000239E
:102C50004FF496724D210090422001F05DFF4FF439
:102C6000FA6262214C2002F01DF8532002F068FF46
:102C70004FF4FA7006F0B3FF012003234FF42F72D4
:102C80004C210090422001F047FF012005234FF422
:102C90007A724D210090422001F03EFF0120042372
:102CA0004FF4FA724D210090422001F035FF4FF4AD
:102CB0009671422001F023FF00BF334800680028CE
:102CC000FBD1532002F03CFF4FF4FA7006F087FF6F
:102CD0004FF4FA6262214C2001F0E4FF012004234A
:102CE00002E012E05EE0AEE04FF47A724C21009018
:102CF000422001F011FF012002234FF496724D2172
:102D00000090422001F008FF9DE04FF4FA7006F0B9
:102D100066FF4FF4E1626121522001F0C3FF012000
:102D200002234FF47A724C210090462001F0F4FE09
:102D3000012006234FF47A724D210090462001F0C5
:102D4000EBFE012002234FF42F724D21009046200C
:102D500001F0E2FE4FF4FA71462001F0D0FE00BF10
:102D6000094800680028FBD14FF4FA626221522022
:102D700001F098FF012004234FF47A724D21009056
:102D8000422003E0388122422401244201F0C4FEA3
:102D9000012002234FF496724D210090422001F051
:102DA000BBFE50E04FE0012006234FF47A724D2124
:102DB0000090462001F0B0FE012002234FF4FA7289
:102DC0004D210090462001F0A7FE4FF49671462059
:102DD00001F095FE00BFFE4800680028FBD14FF4CB
:102DE000E1626121522001F05DFF012005234FF4D3
:102DF0002F724C210090462001F08EFE0120062308
:102E00004FF47A724D210090462001F085FE01209A
:102E100000234FF42F7252210090462001F07CFED7
:102E2000012000234FF4FA7252210090462001F055
:102E300073FE012002234FF4FA72522100904220C7
:102E400001F06AFE00BF00BF38BD08B5E14A114677
:102E50004620FEF762FC0120062340F2DC524D21A1
:102E60000090462001F058FE012002234FF47A72B0
:102E70004D210090462001F04FFE012006234FF423
:102E80002F724D210090462001F046FE01200223C2
:102E90004FF4FA724D210090462001F03DFE0120D2
:102EA00000234FF496724D210090462001F034FE2D
:102EB0004FF4E1626221522001F0F4FE012004236C
:102EC0004FF42F724D210090422001F025FE4FF467
:102ED0009671422001F013FE00BFBF480068002831
:102EE000FBD14FF4E1626221522001F0DBFE0120B0
:102EF00004234FF42F724D210090422001F00CFE6C
:102F0000012000234FF496724D210090422001F0E1
:102F100003FE4FF4E16261214C2001F0C3FE462024
:102F2000FDF732FE012004234FF4FA724D21009088
:102F3000422001F0F1FD4FF49671422001F0DFFDD7
:102F400000BFA54800680028FBD14FF4E162612171
:102F50004C2001F0A7FE022007234FF47A724D2186
:102F60000090462001F0D8FD012003234FF42F727A
:102F70004D210090462001F0CFFD4FF49671462080
:102F800001F0BDFD00BF944800680028FBD14FF45C
:102F9000E16262214C2001F085FE012005234FF4FF
:102FA0002F724D210090422001F0B6FD0120034612
:102FB0004FF496724D210090422001F0ADFD4FF488
:102FC000E1626121522001F06DFE4620FDF7DCFD3B
:102FD000012004234FF42F724D210090422001F074
:102FE0009BFD4FF49671422001F089FD00BF7A48A5
:102FF00000680028FBD14FF4E1626121522001F00A
:1030000051FE012007234FF47A724D210090462093
:1030100001F082FD012003234FF42F724D21009017
:10302000462001F079FD012003464FF496724D21B0
:103030000090462001F070FD08BD08B5654A1146B4
:103040004620FEF76AFB0120062340F2DC524D21A8
:103050000090462001F060FD012002234FF47A72B7
:103060004D210090462001F057FD012006234FF42A
:103070002F724D210090462001F04EFD01200223C9
:103080004FF4FA724D210090462001F045FD0120D9
:1030900000234FF496724D210090462001F03CFD34
:1030A0004FF4E1626221522001F0FCFD0120042373
:1030B0004FF47A724D210090422001F02DFD4FF423
:1030C0009671422001F01BFD00BF434800680028B4
:1030D000FBD1532002F034FD4FF4FA7006F07FFD6F
:1030E0004FF4E1626221522001F0DCFD0120042353
:1030F0004FF42F724D210090422001F00DFD012070
:1031000000234FF496724D210090422001F004FDFF
:103110004FF4E16261214C2001F0C4FD4620FDF72F
:1031200033FD012004234FF42F724D2100904220E3
:1031300001F0F2FC4FF49671422001F0E0FC00BF78
:10314000254800680028FBD14FF4E162612152203C
:1031500001F0A8FD012006234FF47A724D21009062
:10316000462001F0D9FC012006234FF47A724D214C
:103170000090462001F0D0FC012002234FF4FA72A7
:103180004D210090462001F0C7FC4FF49671462077
:1031900001F0B5FC00BF104800680028FBD14FF4D7
:1031A000FA6262214C2001F07DFD012004234FF4DE
:1031B0002F724D210090422001F0AEFC4FF4967129
:1031C000422001F09CFC00BF01480068002805E097
:1031D00024012442000020C138812242F4D14FF45E
:1031E000FA6261214C2001F05DFD012005234FF4BE
:1031F000FA724D210090462001F08EFCFDF700FE92
:10320000012006234FF47A724D210090462001F0F0
:1032100083FC012000234FF47A724D210090462058
:1032200001F07AFCFD4AFE49FE48FDF78FFE0120C1
:1032300003234FF47A724D210090462001F06CFC7C
:10324000F94AFA494620FEF7A6FA0020FEF7BAFB33
:10325000F749087AFEF760F9F64A11464620FEF76C
:103260001EFB012006234FF42F724D2100904620B3
:1032700001F052FC012004234FF4FA724D2100901A
:10328000462001F049FC4FF4FA626221522001F01D
:1032900009FD012003234FF4FA724C2100904220D3
:1032A00001F03AFC012005234FF47A724D21009081
:1032B000422001F031FC4FF49671422001F01FFCD6
:1032C00000BFDD4800680028FBD14FF4FA6261219D
:1032D000522001F0E7FC012007234FF47A724D21C0
:1032E0000090462001F018FC012003234FF4FA72ED
:1032F0004D210090462001F00FFC4FF496714620BE
:1033000001F0FDFB00BFCC4800680028FBD1532032
:1033100002F016FC4FF4FA7006F061FC4FF4E16223
:1033200062214C2001F0BEFC012004234FF47A728C
:103330004D210090422001F0EFFB4FF496714220A6
:1033400001F0DDFB00BFBD4800680028FBD1532021
:1033500002F0F6FB4FF4FA7006F041FC4FF4E16224
:1033600061214C2001F09EFC012005234FF4FA72EC
:103370004D210090462001F0CFFB012007234FF4A0
:103380007A724D210090462001F0C6FB01200323F4
:103390004FF4FA724D210090462001F0BDFB012050
:1033A00003464FF496724D210090462001F0B4FB85
:1033B0004FF4FA7006F013FC40F2A462612152202F
:1033C00001F070FC4620FDF7DFFB08BD08B54FF4A7
:1033D000FA6261214C2001F065FC012005234FF4C5
:1033E0002F724C210090462001F096FB0220002312
:1033F0004FF42F724D210090462001F08DFB0120EB
:1034000006234FF42F724D210090462001F084FBDB
:10341000012002234FF42F724D210090462001F02D
:103420007BFB4FF49671462001F069FB00BF844896
:1034300000680028FBD04FF4E1626221522001F0C5
:1034400031FC4FF07E5276494620FEF71AF85320A1
:1034500002F076FB0020FEF75FF808BD08B5794A58
:1034600011464620FEF759F9012006234FF47A72DF
:103470004D210090462001F04FFB012004234FF422
:103480007A724D210090462001F046FBFDF7BBFA11
:10349000012006234FF47A724D210090462001F05E
:1034A0003BFB012004234FF47A724D21009046200B
:1034B00001F032FB4FF07E5259494620FDF7E1FF03
:1034C0000020FEF729F85F4A11464620FEF725F94D
:1034D000012007234FF47A724D210090462001F01D
:1034E0001BFB012003464FF47A724D2100904620C9
:1034F00001F012FB012007234FF42F724D210090A1
:10350000422001F009FB4FF4E1626121522001F0F9
:10351000C9FB012007234FF42F725221009046204F
:1035200001F0FAFA012003464FF42F724D2100906A
:10353000462001F0F1FA4FF4AF6262214C2001F015
:10354000B1FB022007234FF49662522100904620DF
:1035500001F0E2FA012007234FF47A724D21009026
:10356000462001F0D9FA012004234FF42F724D2197
:103570000090462001F0D0FA012003464FF4FA7281
:103580004D210090422001F0C7FA4FF4FA62612108
:103590004C2001F087FB012005234FF42F724C21B2
:1035A0000090462001F0B8FA4620FDF7EDFA012020
:1035B00005234FF47A724C210090422001F0ACFABE
:1035C0004FF49671422001F09AFA00BF1A48303841
:1035D00000680028FAD04FF4FA626121522001F00D
:1035E00061FB4FF080420E494620FDF74AFF10492B
:1035F0000879FDF791FF134A11464620FEF78DF832
:10360000012007234FF461724D210090462001F004
:1036100083FA012006234FF47A7215E00000A040DF
:1036200000002041000080BF0000404000007041C9
:10363000E0040020000070C13881224224012442AD
:1036400020012342000020C14D210090462001F0BE
:1036500063FA012007234FF496624D210090462023
:1036600001F05AFA0120062340F2DC524D2100906D
:10367000462001F051FA012007234FF496624D21B4
:103680000090462001F048FA4FF08042FE49462063
:10369000FDF7F7FEFD49C878FDF73EFFFC4A1146ED
:1036A0004620FEF73AF8012006234FF496624D219A
:1036B0000090462001F030FA012002234FF42F72CF
:1036C0004D210090462001F027FA012004234FF4F9
:1036D00096724D210090462001F01EFA4FF4FA62D6
:1036E0006221522001F0DEFA012007234FF42F72ED
:1036F0004C210090422001F00FFA4220FDF744FADD
:103700000120072340F2DC524D210090462001F0B9
:1037100003FA012005234FF496724D2100904620B4
:1037200001F0FAF94FF4FA6262214C2001F0BAFA82
:10373000012006234FF42F724D210090422001F00A
:10374000EBF9012003464FF4FA724D210090462018
:1037500001F0E2F94FF4FA6262214C2001F0A2FA82
:10376000012005234FF47A724D210090422001F090
:10377000D3F9012000234FF496724D21009042208E
:1037800001F0CAF9532002F0DBF94FF4FA7006F0A9
:1037900026FA4FF4FA626221522001F083FA0120E6
:1037A00007234FF47A724C210090462001F0B4F9BF
:1037B0000120062340F2DC524D210090462001F00A
:1037C000ABF9022005234FF496624D21009046206C
:1037D00001F0A2F94FF08042AB494620FDF751FEBF
:1037E000AA494879FDF798FEA94A11464620FDF7F7
:1037F00094FF0120062340F2DC524D210090462028
:1038000001F08AF9012002234FF47A724D210090D1
:10381000462001F081F9012006234FF42F724D213B
:103820000090462001F078F9012002234FF4FA724B
:103830004D210090462001F06FF9012000234FF444
:1038400096724D210090462001F066F94FF4E16236
:103850006221522001F026FA012004234FF42F7236
:103860004D210090422001F057F94FF4967142200B
:1038700001F045F900BF874800680028FBD14FF4EC
:10388000E1626221522001F00DFA012004234FF47D
:103890002F724D210090422001F03EF901200023BB
:1038A0004FF496724D210090422001F035F94FF40B
:1038B000E16261214C2001F0F5F94620FDF764F941
:1038C000012004234FF4FA724D210090422001F0B0
:1038D00023F94FF49671422001F011F900BF6D48B1
:1038E00000680028FBD14FF4E1626121522001F011
:1038F000D9F9012006234FF47A724D210090462019
:1039000001F00AF9012006234FF47A724D2100904C
:10391000462001F001F9012002234FF4FA724D21F3
:103920000090462001F0F8F84FF49671462001F01F
:10393000E6F800BF574800680028FBD14FF4FA6250
:1039400062214C2001F0AEF9012004234FF42F72C4
:103950004D210090422001F0DFF84FF49671422093
:1039600001F0CDF800BF4C4800680028FBD14FF4AF
:10397000FA6261214C2001F095F9FDF741FA01202E
:1039800006234FF47A724D210090462001F0C4F8CE
:10399000012000234FF47A724D210090462001F05F
:1039A000BBF83E4A38493E48FDF7D0FA01200323D0
:1039B0004FF4FA724D210090462001F0ADF8394ADB
:1039C00039494620FDF7E7FE3049087AFDF7A4FDA6
:1039D000364A11464620FDF762FF012006234FF4C8
:1039E0002F724D210090462001F096F8012004230B
:1039F0004FF4FA724D210090462001F08DF84FF4FB
:103A0000FA626221522001F04DF9012003234FF4A4
:103A1000FA724C210090422001F07EF8012005232B
:103A20004FF47A724D210090422001F075F84FF466
:103A30009671422001F063F800BF16480068002824
:103A4000FBD14FF4FA626121522001F02BF90120E1
:103A500007234FF47A724D210090462001F05CF864
:103A6000012003234FF4FA724D210090462001F00B
:103A700053F84FF49671462001F041F800BF054815
:103A800000680028FBD113E000002041E004002082
:103A9000000020C138812242240124420000A040BD
:103AA000000080BF0000404000007041000070C175
:103AB000532002F045F84FF4FA7006F090F84FF4F6
:103AC000E16262214C2001F0EDF8012004234FF463
:103AD0007A724D210090422001F01EF84FF4967149
:103AE000422001F00CF800BFFE4800680028FBD11E
:103AF000532002F025F84FF4FA7006F070F84FF4F6
:103B0000E16261214C2001F0CDF8012005234FF442
:103B1000FA724D210090462000F0FEFF012007239D
:103B20004FF47A724D210090462000F0F5FF0120FD
:103B300003234FF4FA724D210090462000F0ECFF71
:103B4000012003464FF496724D210090462000F06C
:103B5000E3FF4FF4FA7006F042F840F2A4626121EC
:103B6000522001F09FF84620FDF70EF801200423B3
:103B70004FF42F724D210090422000F0CDFF4FF402
:103B80009671422000F0BBFF00BFD74800680028B4
:103B9000FBD14FF4E1626221522001F083F8012051
:103BA00004234FF42F724D210090422000F0B4FF07
:103BB0004FF49671422000F0A2FF00BFC948006890
:103BC0000028FBD14FF4E16261214C2001F06AF83A
:103BD000012005234FF4FA724D210090462000F099
:103BE0009BFF012006234FF42F724D2100904620A9
:103BF00000F092FF012007234FF47A724D210090CC
:103C0000462000F089FF012003234FF4FA724D2172
:103C10000090462000F080FF012003464FF496728A
:103C20004D210090462000F077FF4FF4FA7005F028
:103C3000D6FF4FF4E16262214C2001F033F80120FD
:103C400004234FF42F724D210090422000F064FFB6
:103C5000012000234FF496724D210090422000F085
:103C60005BFF4FF4FA7005F0BAFF4FF4E162612197
:103C70004C2001F017F84620FCF786FF01200423B2
:103C80004FF4FA724D210090422000F045FF4FF4AE
:103C90009671422000F033FF00BF9348006800286F
:103CA000FBD14FF4E1626121522000F0FBFF0120C3
:103CB00007234FF47A724D210090462000F02CFF2C
:103CC000012003464FF4FA724D210090462000F087
:103CD00023FF012006234FF47A724D2100904620E5
:103CE00000F01AFF012002234FF4FA724D210090D8
:103CF000462000F011FF4FF49671462000F0FFFEC1
:103D000000BF784800680028FBD14FF4E1626121D0
:103D1000522000F0C7FF012005234FF42F724C21E1
:103D20000090462000F0F8FE012006234FF47A723E
:103D30004D210090462000F0EFFE012000234FF4BB
:103D40002F7252210090462000F0E6FE0120002351
:103D50004FF4FA7252210090462000F0DDFE01205F
:103D600002234FF4FA7252210090422000F0D4FE58
:103D700008BD08B55D4A11464620FDF7CEFC01207E
:103D800007234FF47A724D210090462000F0C4FEC4
:103D9000012003464FF47A724D210090462000F036
:103DA000BBFE012007234FF42F724D2100904220CB
:103DB00000F0B2FE4FF4E1626121522000F072FF88
:103DC000012007234FF42F7252210090462000F06B
:103DD000A3FE012003464FF42F724D210090462090
:103DE00000F09AFE4FF4AF6262214C2000F05AFFBF
:103DF000022007234FF4966252210090462000F0E3
:103E00008BFE012007234FF47A724D21009046204B
:103E100000F082FE012004234FF42F724D21009008
:103E2000462000F079FE012003464FF4FA724D213E
:103E30000090422000F070FE4FF4FA6261214C20A5
:103E400000F030FF012005234FF42F724C21009029
:103E5000462000F061FE4620FCF796FE0120052377
:103E60004FF47A724C210090422000F055FE4FF43E
:103E70009671422000F043FE00BF1B4830380068B6
:103E80000028FAD04FF4FA626121522000F00AFFB4
:103E90004FF0804216494620FDF7F3FA0020FDF767
:103EA00091FD14490879FDF737FB104A1146462069
:103EB000FDF733FC012007234FF461724D21009080
:103EC000462000F029FE012006234FF47A724D218E
:103ED0000090462000F020FE012007234FF4966258
:103EE0004D2109E02401244238812242000020C1F2
:103EF00000002041E00400200090462000F00CFE6D
:103F00000120062340F2DC524D210090462000F0B3
:103F100003FE012007234FF496624D2100904620B6
:103F200000F0FAFD4FF080422A494620FDF7A9FA39
:103F30000020FDF747FD2849C878FDF7EDFA274A2C
:103F400011464620FDF7E9FB012006234FF4966257
:103F50004D210090462000F0DFFD012002234FF4A8
:103F60002F724D210090462000F0D6FD0120042341
:103F70004FF496724D210090462000F0CDFD4FF495
:103F8000FA626221522000F08DFE012007234FF4D7
:103F90002F724C210090422000F0BEFD4220FCF721
:103FA000F3FD0120072340F2DC524D210090462012
:103FB00000F0B2FD012005234FF496724D210090D0
:103FC000462000F0A9FD4FF4FA6262214C2000F077
:103FD00069FE08BD00002041E0040020000020C16F
:103FE0007FB504460D460121084606F02CFB41F240
:103FF0008830ADF8080041F61F40ADF804000020FD
:10400000ADF80A00ADF8060001A94FF0804006F0B7
:1040100045FC01224121880706F0B7FF1C208DF8DE
:10402000000000208DF8010003208DF8020001201F
:104030008DF80300684605F074FF7FBD10B50121BF
:10404000880707F050FA18B10121880707F05CFAD9
:1040500010BD7FB505460C460121022006F0F3FA9B
:10406000ADF80850ADF804400020ADF80A00ADF8F6
:10407000060001A9F64806F011FC01224121F4488E
:1040800006F083FF1D208DF8000000208DF8010050
:1040900003208DF8020001208DF80300684605F02A
:1040A00040FF0121EA4806F055FF7FBD10B5012110
:1040B000E74807F018FA18B10121E54807F024FA9B
:1040C00010BD30B589B005460C460121022006F02E
:1040D000BAFA0121112006F0A9FA0121DD4806F003
:1040E000BAF84FF47070ADF8200018208DF8230056
:1040F00003208DF8220008A9D74805F0DBFFADF8B2
:104100001850ADF814400020ADF81A00ADF81600B4
:1041100005A9CF4806F0C2FB7020ADF804000120CD
:10412000ADF806000020ADF80A00ADF80C0001A9BA
:10413000C74806F032FC0821C54807F044F801A939
:10414000C34806F0E8FB0821C14807F033F801A98D
:10415000BF4806F06FFC0821BD4807F041F801A9EF
:10416000BB4806F0B2FC0821B94807F042F801212B
:10417000B74806F0EFFF0121B54806F0EBFE09B0A5
:1041800030BD30B589B005460C460121042006F04B
:104190005AFA0121082006F056FA4FF47070ADF873
:1041A000200018208DF8230003208DF8220008A994
:1041B000AA4805F07FFFADF81850ADF81440002074
:1041C000ADF81A00ADF8160005A9A54806F066FB83
:1041D0006020ADF804000120ADF806000020ADF825
:1041E0000A00ADF80C0001A99D4806F094FB01A956
:1041F0009B4806F0D2FB01A9994806F01BFC01A9D7
:10420000974806F062FC0121954806F0AFFE0821B0
:10421000934806F0CFFF0821914806F0D4FF08210B
:104220008F4806F0DDFF08218D4806F0E2FF0121EE
:104230008B4806F08FFF0121894806F08BFE09B0FC
:1042400030BD30B585B005460C460121082006F08A
:10425000FAF90121042006F0E9F90120ADF8100077
:1042600028208DF8130004A97E4805F023FF0121C2
:104270007C4805F0CEFFADF80850ADF804400020B2
:10428000ADF80A00ADF8060001A9774806F006FB74
:104290000020764908804880012088800020C8805E
:1042A0000881714806F08DFD02208DF80100002084
:1042B0008DF8020001208DF80300684605F031FEFC
:1042C00001220321684806F060FE0121664806F0DD
:1042D00041FE05B030BD10B56548007800F08000A3
:1042E00000284CD10121604807F0FDF8D0B16048AA
:1042F000007800F04000A8B15D48007800F03F0071
:104300003F280AD15A48007840F080005849087088
:104310004FF6FF705749088004E055480078401C6C
:10432000534908700221504807F0DDF838B350486F
:10433000007800F0400078B14D48007840F08000EF
:104340004B490870484807F0AFF84A4908800021F7
:10435000454806F0B1FF12E0002045490870454984
:1043600008800021404807F089F84148007840F073
:1043700040003F49087002213B4806F09DFF0321A1
:10438000394807F0C1F810BD10B5044624B942F20F
:1043900085012F4807F076F8012C04D142F29811DC
:1043A0002B4807F06FF8022C04D141F684412848CD
:1043B00007F068F810BD10B5044624B942F2850133
:1043C000234807F061F8012C04D142F2FC11204887
:1043D00007F05AF8022C04D141F684411C4807F03A
:1043E00053F810BD10B5044624B942F285011848AF
:1043F00007F04CF8012C04D142F2FC11144807F0EC
:1044000045F8022C04D141F68441114807F03EF8EA
:1044100010BD10B5044624B942F285010C4807F0DE
:1044200037F8012C04D142F29811094807F030F80E
:10443000022C04D141F68441054807F029F810BD4B
:1044400010B59F2142F22730FFF73BFE10BD000060
:1044500000040040000C1A0000100140000C014054
:104460000008004000080140000C0040EA04002061
:104470003C0000203E00002070B506460C46154664
:1044800030460AF089FBAC49886020460AF084FB7C
:10449000A949C86028460AF07FFBA74908610020A7
:1044A000C861086270BD70B5A4484078F12810D189
:1044B000A14988680AF0A4F9044622460B46A0A048
:1044C00007F02EFE9D4988780AF07EFB9A498860A5
:1044D00070BD9A484078F22810D19749C8680AF010
:1044E0008FF9044622460B4695A007F019FE934922
:1044F00088780AF069FB9049C860E9E78F484078FE
:10450000F32810D18C4908690AF07AF9044622464A
:104510000B468BA007F004FE884988780AF054FB0C
:1045200085490861D4E700BFD2E770B5044620464C
:104530000AF032FB804948600A46116850680AF068
:1045400089FC7D4988610A469169106A0AF084F9FC
:10455000794908620A46916990680AF07DFB7649BC
:1045600088620A46116AD0680AF076FB724948628E
:104570000A46D16990690AF06DFC05466E480169EA
:1045800028460AF069FB6C49C8620A46516A906A7B
:104590000AF062F905466848C16A28460AF05CF9E3
:1045A0006549486308468069C861664800680AF042
:1045B000F3FA05466048416B28460AF019FB05D816
:1045C000604800680AF0E8FA5B4948635E480068A2
:1045D0000AF0E2FA05465848416B28460AF008FC02
:1045E00005D8594800680AF0D7FA53494863524938
:1045F000486B0AF095FA70BD70B506460C46154634
:1046000030460AF0C9FA5149886020460AF0C4FAD7
:104610004E49486128460AF0BFFA4C49086100201B
:104620008863086070BD70B544484078F12813D1A4
:10463000424880780A2190FBF1F420460AF0ACFA57
:104640004249886088680AF0DBF8044622460B4637
:104650003BA007F065FD70BD38484078F22812D1C4
:104660003648847804EBD47148100AF095FA37493B
:10467000486148690AF0C4F8044622460B4630A057
:1046800007F04EFDE7E72D484078F32813D12B487B
:1046900080780A2190FBF1F420460AF07DFA2B493C
:1046A000086108690AF0ACF8044622460B4624A0CB
:1046B00007F036FDCFE700BFCDE770B504462046D2
:1046C0000AF06AFA05462148016828460AF0C2FB4A
:1046D0001E4988610A46916990680AF0BDFA1B4933
:1046E00088620846806A4863164800680AF054FAEF
:1046F00005461648416B28460AF07AFA05D8114853
:1047000000680AF049FA114948630F4800680AF046
:1047100043FA05460D48416B28460AF069FB05D867
:10472000094800680AF038FA084948630749486BA5
:104730000AF0F6F970BD0000F40400200C06002019
:10474000256C6600480000204C0000203405002045
:104750002DE9F0478146FB48006808B9012000E0D8
:104760000020F9490860F948006808B9012000E014
:104770000020F5494860F3480C3000688860F34831
:1047800030380068C860F24800680861ED48243895
:1047900000684861EE480C30006808B9012000E06C
:1047A0000020E9498861EB48006808B9012000E071
:1047B0000020E549C861E6481830006808B90120C2
:1047C00000E00020E0490862E2480838006808B9C3
:1047D000012000E00020DC494862B9F14C0F48D0CC
:1047E000B9F14D0F7ED0B9F1520F41D10020DA4915
:1047F0000860D64830380068D8490860D848006852
:104800004860D248283800688860D0482C38006852
:10481000C860CC48001D00680861CC481C3800689E
:104820004861C848083000688861C6480C30006894
:10483000C861C44824380068CA490860CA4800688A
:104840004860C948001F00688860C7480838006889
:10485000C860C5480C3800680861C3481038006853
:104860004861BB48001D00688861B9480068C8619C
:1048700087E00120B8490860B2480C300068B749A9
:104880000860B048083000684860B0481C380068CC
:104890008860AC48001D0068C860AC482C380068CF
:1048A0000861AA48283800684861AD4800688861F6
:1048B000A64830380068C861A5480068A949086062
:1048C000A348001D00684860A74810380068886049
:1048D000A5480C380068C860A3480838006808611B
:1048E000A14800E00AE0001F006848619E48006897
:1048F0008861944824380068C86142E002209649E3
:10490000086092482C380068944908608D48001D62
:10491000006848608D482838006888608B481C38DB
:104920000068C8608E4800680861864808300068E2
:104930004861864830380068886182480C300068D9
:10494000C8618948083800688649086086480C387C
:10495000006848608448001F0068886082481038FA
:104960000068C8608048006808617948001D0068D8
:104970004861744824380068886175480068C861D7
:1049800000BF00BF002432E0744850F8240038B360
:104990007148006800EB8000744901EBC00050F8DA
:1049A00024006E4951F8241048436B49096801EB13
:1049B00081016E4A02EBC102611C52F82120674B53
:1049C00053F8211001FB0201184650F82420601C06
:1049D00053F82000104491FBF0F06549086008E0AE
:1049E000082C03D16348006861490860641C082CE6
:1049F000CADD00BF002432E05A4850F8240038B322
:104A00005548006800EB8000584901EBC00050F8A1
:104A10002400544951F8241048434F49096801EBD8
:104A20008101524A02EBC102611C52F821204D4B18
:104A300053F8211001FB0201184650F82420601C95
:104A400053F82000104491FBF0F04B49086008E057
:104A5000082C03D14948006847490860641C082CA9
:104A6000CADD00BF42480068424908604248006809
:104A7000424908603E4909683F4A1268881800EBBD
:104A8000D07149102D393E4A1160394909683A4AB6
:104A90001268881A09F0C3FB07460022394B09F057
:104AA00009FA054608F018FF374A03C2BDE8F08747
:104AB00010B53648008881B2354806F0E9FC354823
:104AC000008881B2324806F0E1FC3048008881B2AB
:104AD0002F4806F0D7FC2F48008881B22C4806F0FA
:104AE000D3FC10BD70B505460C46284601F028F8E9
:104AF0002648046027480460FFF7DAFF70BD70B5F0
:104B000005460C46284601F01BF820480460214861
:104B10000460FFF7CDFF70BD2DE9FF4F89B00D4652
:104B200014461E46DDF858900020089082460790F3
:104B300019480460604219490860099801F000F8BA
:104B4000A7E0000024012442C4050020388122424D
:104B50002001234238812142640000207405002096
:104B6000300122429C0500203C8123426800002045
:104B7000500000205C000020540000206000002055
:104B80005800002000005E40E000002044000020AB
:104B90000008004040000020480000204C00002099
:104BA0002846FFF7D5FDBE4850F82600B8B1089852
:104BB00018B101200790002008900AF10101079820
:104BC000484300F0FF0ABAF1C80F0ED1A9F1010065
:104BD00000F0FF094FF0000A0020079005E00020D8
:104BE0000790012008904FF0000AAE48006809F0D5
:104BF00007FECDE90001AC480CC8009809F026FB7F
:104C0000CDE90401A948006809F0C6FF0190A84851
:104C1000016801980AF020F8834609F0F1FDCDE91A
:104C20000201DDE9042309F095F8074609F09AFA34
:104C30000690FFF742FD20449E49086099480068AD
:104C400009F0DEFDCDE9000197480CC8009809F095
:104C5000FDFACDE902019548006809F09DFF019039
:104C600093480168019809F0F7FF834609F0C8FDF1
:104C70000746DDE9022309F06DF8CDE9040109F0EA
:104C800071FA0690FFF719FD201A8B490860FFF7AB
:104C90000FFFB9F1000F83D1532000F051FF0DB089
:104CA000BDE8F08F70B506460D461446304600F05C
:104CB00047FF3046FFF74CFD612D45D10AE03046F5
:104CC000FFF746FD21463046FFF70CFF7B480068A2
:104CD00000B101E0002CF2D100BF0CE03046FFF73C
:104CE00037FDA4F5FA7081B23046FFF7FBFE73483A
:104CF000406800B102E0B4F57A7FEFDA00BF0CE063
:104D00003046FFF725FDA4F57A7081B23046FFF7F3
:104D1000E9FE6A48806800B103E040F2DC5084425A
:104D2000EEDA00BF0CE03046FFF712FDA4F214509B
:104D300081B23046FFF7D6FE6048C06800B102E09D
:104D4000B4F5E16FEFDA45E00AE03046FFF700FD29
:104D500021463046FFF7C6FE5948C06900B101E060
:104D6000002CF2D100BF0CE03046FFF7F1FCA4F5B7
:104D7000FA7081B23046FFF7B5FE5148806900B144
:104D800002E0B4F57A7FEFDA00BF0CE03046FFF7BF
:104D9000DFFCA4F57A7081B23046FFF7A3FE4848E5
:104DA000406900B103E040F2DC508442EED000BF25
:104DB0000CE03046FFF7CCFCA4F2145081B2304630
:104DC000FFF790FE3E48006900B102E0B4F5E16FE4
:104DD000EFDA00BF70BD2DE9F34F83B08A46039828
:104DE000FFF7B6FC3748C0F800A0CAF1000036490A
:104DF00008602C48006809F003FD80462A480CC86A
:104E0000404609F023FA06460F462848006809F094
:104E1000C3FE814626480168484609F01DFF8046CA
:104E200009F0EEFC32463B46CDE9000108F092FF66
:104E3000044609F097F98346FFF73FFC50441D49AB
:104E400008601848006809F0DBFC804616480CC86A
:104E5000404609F0FBF906460F461448006809F081
:104E60009BFE814612480168484609F0F5FE8046DF
:104E700009F0C6FC32463B46CDE9000108F06AFF66
:104E8000044609F06FF98346FFF717FCAAEB000010
:104E900009490860FFF70CFE05B0BDE8F08F00007F
:104EA000C4050020EC000020E00000205800002095
:104EB000E80000204400002040000020740500208D
:104EC0009C050020480000204C00002010B5202147
:104ED000FB4805F09CF94FF48071F94805F097F90B
:104EE0004FF48071F64805F094F92021F44805F05C
:104EF00090F910BD10B52021F14805F088F94FF464
:104F00008071EF4805F085F94FF48071EC4805F0A9
:104F10007EF910BD10B52021E94805F078F920216F
:104F2000E74805F076F910BD2DE9F04105462C461D
:104F30002021E34805F06DF900261AE0274607F026
:104F40008007802F04D17900DD4805F060F904E086
:104F50004FF48071DA4805F05CF96006040E2021F8
:104F6000D74805F054F92021D54805F052F9701CB6
:104F7000C6B2082EE2DBBDE8F08110B50446FFF7AB
:104F8000A5FF7820FFF7D0FFFFF7C4FF0020FFF751
:104F9000CBFFFFF7BFFF2046FFF7C6FFFFF7BAFFC3
:104FA000FFF7A8FF10BD10B50446FFF78FFF78206C
:104FB000FFF7BAFFFFF7AEFF4020FFF7B5FFFFF79F
:104FC000A9FF2046FFF7B0FFFFF7A4FFFFF792FF0E
:104FD00010BD70B504460D461DB1E0B2FFF7E3FF0A
:104FE00002E0E0B2FFF7C9FF70BD70B506460024CD
:104FF00018E004F1B0000021FFF7EBFF00210846A4
:10500000FFF7E7FF00211020FFF7E3FF002505E091
:1050100001213046FFF7DDFF681CC5B2802DF7DBAC
:10502000601CC4B2082CE4DB70BD06E041F66501EB
:1050300000E0491E0029FCD1401E0028F6D170472F
:10504000014605E0002001E0421CD0B27B28FBDBDA
:105050000A00A1F10101F5D1704770B504460D4673
:1050600005F1B0000021FFF7B4FF102141EA141050
:105070000021FFF7AEFF04F00F000021FFF7A9FFAA
:1050800070BD10B500218D20FFF7A3FF0021142073
:10509000FFF79FFF0021AF20FFF79BFF10BD10B56A
:1050A00000218D20FFF795FF00211020FFF791FFD1
:1050B0000021AE20FFF78DFF10BD70B5002418E071
:1050C00004F1B0000021FFF784FF00210846FFF73C
:1050D00080FF00211020FFF77CFF002505E0012163
:1050E0000020FFF776FF681CC5B2802DF7DB601C3F
:1050F000C4B2082CE4DB70BD70B5002418E004F1E4
:10510000B0000021FFF765FF00210846FFF761FFAF
:1051100000211020FFF75DFF002505E00121084672
:10512000FFF757FF681CC5B2802DF7DB601CC4B2C7
:10513000082CE4DB70BD2DE9F04707460E4690468B
:10514000994600250024A8F12000C5B27F2F02DD7A
:105150000027B01CC6B2B9F1100F24D13146384631
:10516000FFF77BFF002408E004EB0511554A505C73
:105170000121FFF72EFF601CC4B2082CF4DB701C69
:10518000C1B23846FFF769FF002409E004EB0511BE
:1051900008314C4A505C0121FFF71BFF601CC4B270
:1051A000082CF3DB12E031463846FFF756FF0024A7
:1051B0000AE005EB4501444A02EB4101085D01218B
:1051C000FFF707FF601CC4B2062CF2DBBDE8F087D6
:1051D00010B50246012000E050430B00A1F101048C
:1051E000E1B2F9D110BD2DE9FF5F074691461E4699
:1051F0000E9D4FF0000A002435E0301B401EC1B266
:105200000A20FFF7E5FFB9FBF0F00A21B0FBF1F24D
:1052100001FB1208BAF1000F14D1701EA04211DD7B
:10522000B8F1000F0CD1AB4605EBDB71491001FB67
:105230000471C8B22B4620220199FFF77CFF10E0D1
:105240004FF0010AAB4605EBDB71491001FB04711D
:10525000C8B208F13001CAB22B460199FFF76BFFC3
:1052600000BF601CC4B2B442C7DBBDE8FF9F2DE99C
:10527000F04104460F461546984600260FE0AA5D09
:10528000434639462046FFF756FF04F10800C4B2F2
:10529000782C02DD0024B81CC7B2701CC6B2A85D11
:1052A0000028ECD1BDE8F0812DE9F04180460E46A2
:1052B0001546002731464046FFF7CFFE002410E098
:1052C000000801405AF2000832F00008744A02EB6C
:1052D0008511085D0121FFF77CFE781CC7B2601CB8
:1052E000C4B2102CF2DB701CC1B24046FFF7B5FE11
:1052F00000240CE06900491C694A02EB4111085D79
:105300000121FFF766FE781CC7B2601CC4B2102CE6
:10531000F0DBBDE8F0812DE9F05F06460F469046D0
:105320001C46DDF828A04FF0000BE11704EB51718B
:10533000C910A4EBC10131B92046E11704EB51714A
:10534000C1F3C70506E02046E11704EB5171C9100F
:10535000491CCDB23D4615E029463046FFF77DFE9B
:10536000B1460BE059460BF1010B1AF8010001217F
:10537000FFF72FFE09F1010000F0FF09C145F1DB45
:10538000681CC5B2A542E7DBBDE8F09F08B5012166
:10539000042005F04BF94FF49070ADF80000102098
:1053A0008DF8030003208DF8020069463D4804F0A3
:1053B00081FE4FF490713B4804F029FF4FF4487090
:1053C00004F00DFC0021AE20FFF703FE002108468B
:1053D000FFF7FFFD00211020FFF7FBFD002140201B
:1053E000FFF7F7FD0021B020FFF7F3FD002181203A
:1053F000FFF7EFFD0021FF20FFF7EBFD0021A120CB
:10540000FFF7E7FD0021A620FFF7E3FD0021A8201C
:10541000FFF7DFFD00213F20FFF7DBFD0021C82063
:10542000FFF7D7FD0021D320FFF7D3FD0021084669
:10543000FFF7CFFD0021D520FFF7CBFD0021802015
:10544000FFF7C7FD0021D820FFF7C3FD002105208D
:10545000FFF7BFFD0021D920FFF7BBFD0021F120A0
:10546000FFF7B7FD0021DA20FFF7B3FD002112207E
:10547000FFF7AFFD0021DB20FFF7ABFD002130205F
:10548000FFF7A7FD00218D20FFF7A3FD00211420C9
:10549000FFF79FFD0021AF20FFF79BFD08BD000037
:1054A000F00000200008014008B50121042005F0AB
:1054B000BDF8C020ADF8000010208DF803000320D7
:1054C0008DF802006946904804F0F4FDC0218E4832
:1054D00004F09DFE08BD10B58B48006820F07040B8
:1054E000894908600846006840F040500860012083
:1054F000864908608649C1F89801042004F04BFBF6
:10550000002082490860042004F045FB0020804907
:10551000C1F8980110BD10B57B48006820F07040BC
:10552000794908600846006840F040500860002053
:105530007649091F08607649C1F89C01042004F0EF
:105540002AFB01207149091F08607149C1F89C01BB
:10555000042004F020FB10BD10B500246A48006848
:1055600020F07040684908600846006840F000403C
:10557000086001206549086004F00DFB01206449C2
:10558000C1F8980104F007FB07E0601CC4B2FA2CD4
:1055900003DDFFF7C0FF012010BD5C4880380068C4
:1055A0000028F2D15949091F086000BFF4E710B57F
:1055B00000205649091F08605348006820F07040D9
:1055C000514908600846006840F0405008600020DB
:1055D0004F49C1F89C01022004F0DDFA01204B493B
:1055E000091F0860022004F0D6FA00204849C1F8DB
:1055F000980110BD10B500204449091F08604248B9
:10560000006820F07040404908600846006840F09B
:105610004050086001203E49C1F89C01022004F07E
:10562000BAFA01203949091F0860022004F0B3FAD0
:1056300000203749C1F8980110BD70B504463248C2
:10564000006820F07040304908600846006840F06B
:105650004050086000202D49091F086000251DE00A
:10566000E00918B101202949086002E0002027491B
:1056700008606006040E022004F08DFA0120234920
:10568000091F0860022004F086FA00202049C1F8B2
:105690009801022004F07FFA681CC5B2082DDFDBF8
:1056A00070BD70B5054600241748006820F07040B2
:1056B000154908600846006840F000400860002670
:1056C00017E000201149091F0860022004F063FA66
:1056D00001200F49C1F898016006040E0B4880387C
:1056E000006808B1601CC4B2012004F054FA701CB8
:1056F000C6B2082EE5DB15B9FFF77CFF01E0FFF726
:1057000056FF204670BD0000000801409C01214268
:105710000000214208B501214FF4FC7004F086FF1F
:105720000220ADF8000010208DF8030003208DF852
:1057300002006946FB4804F0BDFC0221F94804F070
:1057400068FD4FF40050ADF8000010208DF8030004
:1057500003208DF802006946F34804F0ABFC4FF4D7
:105760000051F14804F055FD4FF48040ADF80000C1
:1057700010208DF8030003208DF802006946EA48E6
:1057800004F098FC4FF48041E74804F042FD4FF4E8
:105790000040ADF8000010208DF8030003208DF8C4
:1057A00002006946E04804F085FC4FF40041DE4801
:1057B00004F02FFD4FF48060ADF8000010208DF84C
:1057C000030003208DF802006946D84804F072FCFB
:1057D0004FF48061D54804F01CFD4FF40060ADF833
:1057E000000010208DF8030003208DF802006946A8
:1057F000CE4804F05FFC4FF40061CC4804F009FD92
:105800004FF48050ADF8000010208DF80300032005
:105810008DF802006946C54804F04CFC4FF48051F5
:10582000C24804F0F6FC4FF40050ADF80000102020
:105830008DF8030003208DF802006946BB4804F090
:1058400039FC4FF40051B94804F0E3FC4FF48040B8
:10585000ADF8000010208DF8030003208DF8020041
:105860006946B24804F026FC4FF48041AF4804F08A
:10587000D0FC0121AE4804F0EEFC4FF48050ADF8AE
:10588000000028208DF803006946AA4804F012FCA5
:105890000420ADF8000028208DF803006946A348D5
:1058A00004F008FC1020ADF8000028208DF803005B
:1058B00069469E4804F0FEFB0820ADF80000282051
:1058C0008DF803006946994804F0F4FB8020ADF898
:1058D000000028208DF803006946944804F0EAFB94
:1058E0004FF48040ADF8000028208DF80300694691
:1058F0008E4804F0DFFB4FF48070ADF800002820E4
:105900008DF803006946874804F0D4FB4FF400701B
:10591000ADF8000028208DF803006946814804F0A6
:10592000C9FB4FF40060ADF8000028208DF803009B
:105930006946814804F0BEFB4FF48050ADF800008A
:1059400028208DF8030069467B4804F0B3FB4FF430
:105950000050ADF8000028208DF803006946764815
:1059600004F0A8FB4FF48040ADF8000028208DF82B
:1059700003006946704804F09DFB4FF40040ADF809
:10598000000028208DF8030069466B4804F092FB64
:105990000120ADF8000028208DF803006946624818
:1059A00004F088FB4FF40070ADF8000028208DF85B
:1059B000030069465C4804F07DFB4FF48060ADF85D
:1059C000000028208DF803006946574804F072FB58
:1059D0004FF40060ADF8000028208DF80300694600
:1059E000514804F067FB4FF48050ADF800002820C8
:1059F0008DF8030069464C4804F05CFB0120ADF8CB
:105A0000000048208DF8030069464B4804F052FB23
:105A10000220ADF8000048208DF803006946464892
:105A200004F048FB0420ADF8000048208DF8030086
:105A30006946414804F03EFB0820ADF800004820CC
:105A40008DF8030069463C4804F034FB4FF4804075
:105A5000ADF8000028208DF803006946374804F0AF
:105A600029FB4FF48050ADF8000028208DF803008A
:105A70006946324804F01EFB4FF48040ADF8000048
:105A800028208DF803006946264804F013FB4FF4E4
:105A90000060ADF8000028208DF803006946214819
:105AA00004F008FB002140F69F70FEF76AFB04F04B
:105AB00059F8FFF7F9FC00F0D4FC4FF4A06004F0B3
:105AC0002BFA00F027F900F0EBF900F0F9F94FF4A8
:105AD000165003F039FF2020ADF8000010208DF89B
